{
  "contractName": "Lucky7Escrow",
  "abi": [
    {
      "inputs": [],
      "name": "x",
      "outputs": [
        {
          "internalType": "uint256",
          "name": "",
          "type": "uint256"
        }
      ],
      "stateMutability": "view",
      "type": "function"
    },
    {
      "inputs": [
        {
          "internalType": "uint256",
          "name": "_newValue",
          "type": "uint256"
        }
      ],
      "name": "set",
      "outputs": [],
      "stateMutability": "nonpayable",
      "type": "function"
    },
    {
      "inputs": [],
      "name": "get",
      "outputs": [
        {
          "internalType": "uint256",
          "name": "",
          "type": "uint256"
        }
      ],
      "stateMutability": "view",
      "type": "function"
    }
  ],
  "bytecode": "0x60806040526000805534801561001457600080fd5b50610110806100246000396000f3fe6080604052348015600f57600080fd5b50600436106059576000357c0100000000000000000000000000000000000000000000000000000000900480630c55699c14605e57806360fe47b114607a5780636d4ce63c1460a5575b600080fd5b606460c1565b6040518082815260200191505060405180910390f35b60a360048036036020811015608e57600080fd5b810190808035906020019092919050505060c7565b005b60ab60d1565b6040518082815260200191505060405180910390f35b60005481565b8060008190555050565b6000805490509056fea26469706673582212204bcc4ed2afcf44ca8bc49d1a8afd21f039dd0e86055ad05a94f99115f009851664736f6c634300060b0033",
  "immutableReferences": {},
  "source": "// SPDX-License-Identifier: MIT\npragma solidity ^0.6.11;\n\ncontract Lucky7Escrow {\n  uint public x = 0;\n    function set(uint _newValue) public{\n      x = _newValue;\n    }\n\n  function get() public view returns (uint){\n    return x;\n  }\n}\n",
  "sourcePath": "/Users/matiasbn/Desktop/luckyseven/apps/web3/contracts/Lucky7Escrow.sol",
  "compiler": {
    "name": "solc",
    "version": "0.6.11+commit.5ef660b1.Emscripten.clang"
  },
  "schemaVersion": "3.2.2",
  "updatedAt": "2020-07-24T02:18:27.585Z",
  "devdoc": {
    "kind": "dev",
    "methods": {},
    "version": 1
  },
  "userdoc": {
    "kind": "user",
    "methods": {},
    "version": 1
  }
}